{
  "contractName": "MasoomContract",
  "abi": [
    {
      "constant": true,
      "inputs": [
        {
          "name": "",
          "type": "address"
        }
      ],
      "name": "voterDetails",
      "outputs": [
        {
          "name": "voterAddress",
          "type": "address"
        },
        {
          "name": "name",
          "type": "string"
        },
        {
          "name": "aadhar",
          "type": "string"
        },
        {
          "name": "constituency",
          "type": "uint256"
        },
        {
          "name": "hasVoted",
          "type": "bool"
        },
        {
          "name": "isVerified",
          "type": "bool"
        }
      ],
      "payable": false,
      "stateMutability": "view",
      "type": "function"
    },
    {
      "constant": true,
      "inputs": [
        {
          "name": "",
          "type": "uint256"
        }
      ],
      "name": "candidateDetails",
      "outputs": [
        {
          "name": "name",
          "type": "string"
        },
        {
          "name": "party",
          "type": "string"
        },
        {
          "name": "manifesto",
          "type": "string"
        },
        {
          "name": "voteCount",
          "type": "uint256"
        },
        {
          "name": "constituency",
          "type": "uint256"
        },
        {
          "name": "candidateId",
          "type": "uint256"
        }
      ],
      "payable": false,
      "stateMutability": "view",
      "type": "function"
    },
    {
      "constant": true,
      "inputs": [],
      "name": "owner",
      "outputs": [
        {
          "name": "",
          "type": "address"
        }
      ],
      "payable": false,
      "stateMutability": "view",
      "type": "function"
    },
    {
      "constant": true,
      "inputs": [
        {
          "name": "",
          "type": "uint256"
        }
      ],
      "name": "voters",
      "outputs": [
        {
          "name": "",
          "type": "address"
        }
      ],
      "payable": false,
      "stateMutability": "view",
      "type": "function"
    },
    {
      "inputs": [],
      "payable": false,
      "stateMutability": "nonpayable",
      "type": "constructor"
    },
    {
      "constant": true,
      "inputs": [],
      "name": "getOwner",
      "outputs": [
        {
          "name": "",
          "type": "address"
        }
      ],
      "payable": false,
      "stateMutability": "view",
      "type": "function"
    },
    {
      "constant": false,
      "inputs": [
        {
          "name": "_name",
          "type": "string"
        },
        {
          "name": "_party",
          "type": "string"
        },
        {
          "name": "_manifesto",
          "type": "string"
        },
        {
          "name": "_constituency",
          "type": "uint256"
        }
      ],
      "name": "addCandidate",
      "outputs": [],
      "payable": false,
      "stateMutability": "nonpayable",
      "type": "function"
    },
    {
      "constant": true,
      "inputs": [],
      "name": "getCandidateNumber",
      "outputs": [
        {
          "name": "",
          "type": "uint256"
        }
      ],
      "payable": false,
      "stateMutability": "view",
      "type": "function"
    },
    {
      "constant": false,
      "inputs": [
        {
          "name": "_name",
          "type": "string"
        },
        {
          "name": "_aadhar",
          "type": "string"
        },
        {
          "name": "_constituency",
          "type": "uint256"
        }
      ],
      "name": "requestVoter",
      "outputs": [],
      "payable": false,
      "stateMutability": "nonpayable",
      "type": "function"
    },
    {
      "constant": true,
      "inputs": [],
      "name": "getVoterCount",
      "outputs": [
        {
          "name": "",
          "type": "uint256"
        }
      ],
      "payable": false,
      "stateMutability": "view",
      "type": "function"
    },
    {
      "constant": false,
      "inputs": [
        {
          "name": "_address",
          "type": "address"
        }
      ],
      "name": "verifyVoter",
      "outputs": [],
      "payable": false,
      "stateMutability": "nonpayable",
      "type": "function"
    },
    {
      "constant": false,
      "inputs": [
        {
          "name": "candidateId",
          "type": "uint256"
        }
      ],
      "name": "vote",
      "outputs": [],
      "payable": false,
      "stateMutability": "nonpayable",
      "type": "function"
    },
    {
      "constant": false,
      "inputs": [],
      "name": "startElection",
      "outputs": [],
      "payable": false,
      "stateMutability": "nonpayable",
      "type": "function"
    },
    {
      "constant": false,
      "inputs": [],
      "name": "endElection",
      "outputs": [],
      "payable": false,
      "stateMutability": "nonpayable",
      "type": "function"
    },
    {
      "constant": false,
      "inputs": [],
      "name": "clearData",
      "outputs": [],
      "payable": false,
      "stateMutability": "nonpayable",
      "type": "function"
    },
    {
      "constant": true,
      "inputs": [],
      "name": "getStart",
      "outputs": [
        {
          "name": "",
          "type": "bool"
        }
      ],
      "payable": false,
      "stateMutability": "view",
      "type": "function"
    },
    {
      "constant": true,
      "inputs": [],
      "name": "getEnd",
      "outputs": [
        {
          "name": "",
          "type": "bool"
        }
      ],
      "payable": false,
      "stateMutability": "view",
      "type": "function"
    }
  ],
  "bytecode": "0x6060604052341561000f57600080fd5b336000806101000a81548173ffffffffffffffffffffffffffffffffffffffff021916908373ffffffffffffffffffffffffffffffffffffffff160217905550600060018190555060006002819055506000600360006101000a81548160ff0219169083151502179055506000600360016101000a81548160ff0219169083151502179055506112b6806100a46000396000f300606060405236156100e4576000357c0100000000000000000000000000000000000000000000000000000000900463ffffffff1680630121b93f146100e957806309bd09501461010c57806311174a2914610145578063364dff251461016e5780635938750d1461019757806359f784681461033f5780636247e5321461035457806362d73eb8146105345780637d9cf19614610549578063893d20e8146105f25780638da5cb5b146106475780639f05a36d1461069c578063b9e7a439146106c9578063c5292c67146106de578063d6aadfba1461070b578063da58c7d9146107f7575b600080fd5b34156100f457600080fd5b61010a600480803590602001909190505061085a565b005b341561011757600080fd5b610143600480803573ffffffffffffffffffffffffffffffffffffffff169060200190919050506109e5565b005b341561015057600080fd5b610158610a9e565b6040518082815260200191505060405180910390f35b341561017957600080fd5b610181610aa8565b6040518082815260200191505060405180910390f35b34156101a257600080fd5b6101ce600480803573ffffffffffffffffffffffffffffffffffffffff16906020019091905050610ab2565b604051808773ffffffffffffffffffffffffffffffffffffffff1673ffffffffffffffffffffffffffffffffffffffff168152602001806020018060200186815260200185151515158152602001841515151581526020018381038352888181546001816001161561010002031660029004815260200191508054600181600116156101000203166002900480156102a75780601f1061027c576101008083540402835291602001916102a7565b820191906000526020600020905b81548152906001019060200180831161028a57829003601f168201915b505083810382528781815460018160011615610100020316600290048152602001915080546001816001161561010002031660029004801561032a5780601f106102ff5761010080835404028352916020019161032a565b820191906000526020600020905b81548152906001019060200180831161030d57829003601f168201915b50509850505050505050505060405180910390f35b341561034a57600080fd5b610352610b26565b005b341561035f57600080fd5b6103756004808035906020019091905050610bb9565b6040518080602001806020018060200187815260200186815260200185815260200184810384528a8181546001816001161561010002031660029004815260200191508054600181600116156101000203166002900480156104185780601f106103ed57610100808354040283529160200191610418565b820191906000526020600020905b8154815290600101906020018083116103fb57829003601f168201915b505084810383528981815460018160011615610100020316600290048152602001915080546001816001161561010002031660029004801561049b5780601f106104705761010080835404028352916020019161049b565b820191906000526020600020905b81548152906001019060200180831161047e57829003601f168201915b505084810382528881815460018160011615610100020316600290048152602001915080546001816001161561010002031660029004801561051e5780601f106104f35761010080835404028352916020019161051e565b820191906000526020600020905b81548152906001019060200180831161050157829003601f168201915b5050995050505050505050505060405180910390f35b341561053f57600080fd5b610547610bf2565b005b341561055457600080fd5b6105f0600480803590602001908201803590602001908080601f0160208091040260200160405190810160405280939291908181526020018383808284378201915050505050509190803590602001908201803590602001908080601f01602080910402602001604051908101604052809392919081815260200183838082843782019150505050505091908035906020019091905050610c85565b005b34156105fd57600080fd5b610605610e61565b604051808273ffffffffffffffffffffffffffffffffffffffff1673ffffffffffffffffffffffffffffffffffffffff16815260200191505060405180910390f35b341561065257600080fd5b61065a610e8a565b604051808273ffffffffffffffffffffffffffffffffffffffff1673ffffffffffffffffffffffffffffffffffffffff16815260200191505060405180910390f35b34156106a757600080fd5b6106af610eaf565b604051808215151515815260200191505060405180910390f35b34156106d457600080fd5b6106dc610ec6565b005b34156106e957600080fd5b6106f1610f26565b604051808215151515815260200191505060405180910390f35b341561071657600080fd5b6107f5600480803590602001908201803590602001908080601f0160208091040260200160405190810160405280939291908181526020018383808284378201915050505050509190803590602001908201803590602001908080601f0160208091040260200160405190810160405280939291908181526020018383808284378201915050505050509190803590602001908201803590602001908080601f01602080910402602001604051908101604052809392919081815260200183838082843782019150505050505091908035906020019091905050610f3d565b005b341561080257600080fd5b6108186004808035906020019091905050611078565b604051808273ffffffffffffffffffffffffffffffffffffffff1673ffffffffffffffffffffffffffffffffffffffff16815260200191505060405180910390f35b60001515600660003373ffffffffffffffffffffffffffffffffffffffff1673ffffffffffffffffffffffffffffffffffffffff16815260200190815260200160002060040160009054906101000a900460ff1615151415156108bc57600080fd5b60011515600660003373ffffffffffffffffffffffffffffffffffffffff1673ffffffffffffffffffffffffffffffffffffffff16815260200190815260200160002060040160019054906101000a900460ff16151514151561091e57600080fd5b60011515600360009054906101000a900460ff16151514151561094057600080fd5b60001515600360019054906101000a900460ff16151514151561096257600080fd5b600160046000838152602001908152602001600020600301600082825401925050819055506001600660003373ffffffffffffffffffffffffffffffffffffffff1673ffffffffffffffffffffffffffffffffffffffff16815260200190815260200160002060040160006101000a81548160ff02191690831515021790555050565b6000809054906101000a900473ffffffffffffffffffffffffffffffffffffffff1673ffffffffffffffffffffffffffffffffffffffff163373ffffffffffffffffffffffffffffffffffffffff16141515610a4057600080fd5b6001600660008373ffffffffffffffffffffffffffffffffffffffff1673ffffffffffffffffffffffffffffffffffffffff16815260200190815260200160002060040160016101000a81548160ff02191690831515021790555050565b6000600254905090565b6000600154905090565b60066020528060005260406000206000915090508060000160009054906101000a900473ffffffffffffffffffffffffffffffffffffffff1690806001019080600201908060030154908060040160009054906101000a900460ff16908060040160019054906101000a900460ff16905086565b6000809054906101000a900473ffffffffffffffffffffffffffffffffffffffff1673ffffffffffffffffffffffffffffffffffffffff163373ffffffffffffffffffffffffffffffffffffffff16141515610b8157600080fd5b6001600360016101000a81548160ff0219169083151502179055506000600360006101000a81548160ff021916908315150217905550565b60046020528060005260406000206000915090508060000190806001019080600201908060030154908060040154908060050154905086565b6000809054906101000a900473ffffffffffffffffffffffffffffffffffffffff1673ffffffffffffffffffffffffffffffffffffffff163373ffffffffffffffffffffffffffffffffffffffff16141515610c4d57600080fd5b6001600360006101000a81548160ff0219169083151502179055506000600360016101000a81548160ff021916908315150217905550565b610c8d6110b7565b60c0604051908101604052803373ffffffffffffffffffffffffffffffffffffffff16815260200185815260200184815260200183815260200160001515815260200160001515815250905080600660003373ffffffffffffffffffffffffffffffffffffffff1673ffffffffffffffffffffffffffffffffffffffff16815260200190815260200160002060008201518160000160006101000a81548173ffffffffffffffffffffffffffffffffffffffff021916908373ffffffffffffffffffffffffffffffffffffffff1602179055506020820151816001019080519060200190610d7c929190611114565b506040820151816002019080519060200190610d99929190611114565b506060820151816003015560808201518160040160006101000a81548160ff02191690831515021790555060a08201518160040160016101000a81548160ff02191690831515021790555090505060058054806001018281610dfb9190611194565b9160005260206000209001600033909190916101000a81548173ffffffffffffffffffffffffffffffffffffffff021916908373ffffffffffffffffffffffffffffffffffffffff16021790555050600160026000828254019250508190555050505050565b60008060009054906101000a900473ffffffffffffffffffffffffffffffffffffffff16905090565b6000809054906101000a900473ffffffffffffffffffffffffffffffffffffffff1681565b6000600360019054906101000a900460ff16905090565b6004600080815260200190815260200160002060008082016000610eea91906111c0565b600182016000610efa91906111c0565b600282016000610f0a91906111c0565b6003820160009055600482016000905560058201600090555050565b6000600360009054906101000a900460ff16905090565b610f45611208565b6000809054906101000a900473ffffffffffffffffffffffffffffffffffffffff1673ffffffffffffffffffffffffffffffffffffffff163373ffffffffffffffffffffffffffffffffffffffff16141515610fa057600080fd5b60c060405190810160405280868152602001858152602001848152602001600081526020018381526020016001548152509050806004600060015481526020019081526020016000206000820151816000019080519060200190611005929190611114565b506020820151816001019080519060200190611022929190611114565b50604082015181600201908051906020019061103f929190611114565b50606082015181600301556080820151816004015560a08201518160050155905050600180600082825401925050819055505050505050565b60058181548110151561108757fe5b90600052602060002090016000915054906101000a900473ffffffffffffffffffffffffffffffffffffffff1681565b60c060405190810160405280600073ffffffffffffffffffffffffffffffffffffffff1681526020016110e8611251565b81526020016110f5611251565b8152602001600081526020016000151581526020016000151581525090565b828054600181600116156101000203166002900490600052602060002090601f016020900481019282601f1061115557805160ff1916838001178555611183565b82800160010185558215611183579182015b82811115611182578251825591602001919060010190611167565b5b5090506111909190611265565b5090565b8154818355818115116111bb578183600052602060002091820191016111ba9190611265565b5b505050565b50805460018160011615610100020316600290046000825580601f106111e65750611205565b601f0160209004906000526020600020908101906112049190611265565b5b50565b60c06040519081016040528061121c611251565b8152602001611229611251565b8152602001611236611251565b81526020016000815260200160008152602001600081525090565b602060405190810160405280600081525090565b61128791905b8082111561128357600081600090555060010161126b565b5090565b905600a165627a7a723058208bb298df3e790857a672d4ea33a92587ed7fe24fae1773728ff3b71d9c95702c0029",
  "source": "pragma solidity ^0.4.17;\r\ncontract MasoomContract {\r\naddress public owner;\r\nuint candidateCount;\r\nuint voterCount;\r\nbool start;\r\nbool end;\r\n\r\n// Constructor\r\nfunction MasoomContract() public {\r\n   owner = msg.sender;\r\n   candidateCount = 0;\r\n   voterCount = 0;\r\n   start = false;\r\n   end = false;\r\n}\r\nfunction getOwner() public view returns(address) {\r\n   return owner;\r\n}\r\n// Only Admin can access\r\nmodifier onlyAdmin() {\r\n   require(msg.sender == owner);\r\n   _;\r\n}\r\nstruct Candidate{\r\n   string name;\r\n   string party;\r\n   string manifesto;\r\n   uint voteCount;\r\n   uint constituency;\r\n   uint candidateId;\r\n}\r\nstruct testS{\r\n   uint test;\r\n   uint test2;\r\n}\r\nmapping(uint => Candidate) public candidateDetails;\r\n// Only admin can add candidate\r\nfunction addCandidate(string _name, string _party, string _manifesto, uint _constituency) public onlyAdmin {\r\n   Candidate memory newCandidate = Candidate({\r\n     name : _name,\r\n     party : _party,\r\n     manifesto : _manifesto,\r\n     voteCount : 0,\r\n     constituency : _constituency,\r\n     candidateId : candidateCount\r\n   });\r\n   candidateDetails[candidateCount] = newCandidate;\r\n   candidateCount += 1;\r\n}\r\n// get total number of candidates\r\nfunction getCandidateNumber() public view returns (uint) {\r\n   return candidateCount;\r\n}\r\nstruct Voter{\r\n   address voterAddress;\r\n   string name;\r\n   string aadhar;\r\n   uint constituency;\r\n   bool hasVoted;\r\n   bool isVerified;\r\n}\r\naddress[] public voters;\r\nmapping(address => Voter) public voterDetails;\r\n// request to be added as voter\r\nfunction requestVoter(string _name, string _aadhar, uint _constituency) public {\r\n   Voter memory newVoter = Voter({\r\n     voterAddress : msg.sender,\r\n     name : _name,\r\n     aadhar : _aadhar,\r\n     constituency : _constituency,\r\n     hasVoted : false,\r\n     isVerified : false\r\n   });\r\n   voterDetails[msg.sender] = newVoter;\r\n   voters.push(msg.sender);\r\n   voterCount += 1;\r\n}\r\n// get total number of voters\r\nfunction getVoterCount() public view returns (uint) {\r\n   return voterCount;\r\n}\r\nfunction verifyVoter(address _address) public onlyAdmin {\r\n   voterDetails[_address].isVerified = true;\r\n}\r\nfunction vote(uint candidateId) public{\r\n   require(voterDetails[msg.sender].hasVoted == false);\r\n   require(voterDetails[msg.sender].isVerified == true);\r\n   require(start == true);\r\n   require(end == false);\r\n   candidateDetails[candidateId].voteCount += 1;\r\n   voterDetails[msg.sender].hasVoted = true;\r\n}\r\nfunction startElection() public onlyAdmin {\r\n   start = true;\r\n   end = false;\r\n}\r\nfunction endElection() public onlyAdmin {\r\n   end = true;\r\n   start = false;\r\n}\r\nfunction clearData() public{\r\n   delete candidateDetails[0];\r\n\r\n}\r\nfunction getStart() public view returns (bool) {\r\n   return start;\r\n}\r\nfunction getEnd() public view returns (bool) {\r\n   return end;\r\n}\r\n}",
  "sourcePath": "C:/Users/ACER/Documents/FYP(VScode)/Current Project/projectv4/contracts/MasoomContract.sol",
  "compiler": {
    "name": "solc",
    "version": "0.4.17+commit.bdeb9e52.Emscripten.clang"
  },
  "schemaVersion": "3.3.1",
  "updatedAt": "2020-11-11T13:16:27.968Z",
  "networkType": "ethereum",
  "devdoc": {
    "methods": {}
  },
  "userdoc": {
    "methods": {}
  }
}